{
  "_format": "hh-sol-artifact-1",
  "contractName": "MyEpicNFT",
  "sourceName": "contracts/MyEpicNFT.sol",
  "abi": [
    {
      "inputs": [],
      "stateMutability": "nonpayable",
      "type": "constructor"
    },
    {
      "anonymous": false,
      "inputs": [
        {
          "indexed": true,
          "internalType": "address",
          "name": "owner",
          "type": "address"
        },
        {
          "indexed": true,
          "internalType": "address",
          "name": "approved",
          "type": "address"
        },
        {
          "indexed": true,
          "internalType": "uint256",
          "name": "tokenId",
          "type": "uint256"
        }
      ],
      "name": "Approval",
      "type": "event"
    },
    {
      "anonymous": false,
      "inputs": [
        {
          "indexed": true,
          "internalType": "address",
          "name": "owner",
          "type": "address"
        },
        {
          "indexed": true,
          "internalType": "address",
          "name": "operator",
          "type": "address"
        },
        {
          "indexed": false,
          "internalType": "bool",
          "name": "approved",
          "type": "bool"
        }
      ],
      "name": "ApprovalForAll",
      "type": "event"
    },
    {
      "anonymous": false,
      "inputs": [
        {
          "indexed": false,
          "internalType": "address",
          "name": "sender",
          "type": "address"
        },
        {
          "indexed": false,
          "internalType": "uint256",
          "name": "tokenId",
          "type": "uint256"
        }
      ],
      "name": "NewEpicNFTMinted",
      "type": "event"
    },
    {
      "anonymous": false,
      "inputs": [
        {
          "indexed": true,
          "internalType": "address",
          "name": "from",
          "type": "address"
        },
        {
          "indexed": true,
          "internalType": "address",
          "name": "to",
          "type": "address"
        },
        {
          "indexed": true,
          "internalType": "uint256",
          "name": "tokenId",
          "type": "uint256"
        }
      ],
      "name": "Transfer",
      "type": "event"
    },
    {
      "inputs": [
        {
          "internalType": "address",
          "name": "to",
          "type": "address"
        },
        {
          "internalType": "uint256",
          "name": "tokenId",
          "type": "uint256"
        }
      ],
      "name": "approve",
      "outputs": [],
      "stateMutability": "nonpayable",
      "type": "function"
    },
    {
      "inputs": [
        {
          "internalType": "address",
          "name": "owner",
          "type": "address"
        }
      ],
      "name": "balanceOf",
      "outputs": [
        {
          "internalType": "uint256",
          "name": "",
          "type": "uint256"
        }
      ],
      "stateMutability": "view",
      "type": "function"
    },
    {
      "inputs": [
        {
          "internalType": "uint256",
          "name": "tokenId",
          "type": "uint256"
        }
      ],
      "name": "getApproved",
      "outputs": [
        {
          "internalType": "address",
          "name": "",
          "type": "address"
        }
      ],
      "stateMutability": "view",
      "type": "function"
    },
    {
      "inputs": [
        {
          "internalType": "address",
          "name": "owner",
          "type": "address"
        },
        {
          "internalType": "address",
          "name": "operator",
          "type": "address"
        }
      ],
      "name": "isApprovedForAll",
      "outputs": [
        {
          "internalType": "bool",
          "name": "",
          "type": "bool"
        }
      ],
      "stateMutability": "view",
      "type": "function"
    },
    {
      "inputs": [],
      "name": "makeAnEpicNFT",
      "outputs": [],
      "stateMutability": "nonpayable",
      "type": "function"
    },
    {
      "inputs": [],
      "name": "mintedTokens",
      "outputs": [
        {
          "internalType": "uint256",
          "name": "",
          "type": "uint256"
        }
      ],
      "stateMutability": "view",
      "type": "function"
    },
    {
      "inputs": [],
      "name": "name",
      "outputs": [
        {
          "internalType": "string",
          "name": "",
          "type": "string"
        }
      ],
      "stateMutability": "view",
      "type": "function"
    },
    {
      "inputs": [
        {
          "internalType": "uint256",
          "name": "tokenId",
          "type": "uint256"
        }
      ],
      "name": "ownerOf",
      "outputs": [
        {
          "internalType": "address",
          "name": "",
          "type": "address"
        }
      ],
      "stateMutability": "view",
      "type": "function"
    },
    {
      "inputs": [
        {
          "internalType": "uint256",
          "name": "tokenId",
          "type": "uint256"
        }
      ],
      "name": "pickRandomColor",
      "outputs": [
        {
          "internalType": "string",
          "name": "",
          "type": "string"
        }
      ],
      "stateMutability": "view",
      "type": "function"
    },
    {
      "inputs": [
        {
          "internalType": "uint256",
          "name": "tokenId",
          "type": "uint256"
        }
      ],
      "name": "pickRandomFirstWord",
      "outputs": [
        {
          "internalType": "string",
          "name": "",
          "type": "string"
        }
      ],
      "stateMutability": "view",
      "type": "function"
    },
    {
      "inputs": [
        {
          "internalType": "uint256",
          "name": "tokenId",
          "type": "uint256"
        }
      ],
      "name": "pickRandomSecondWord",
      "outputs": [
        {
          "internalType": "string",
          "name": "",
          "type": "string"
        }
      ],
      "stateMutability": "view",
      "type": "function"
    },
    {
      "inputs": [
        {
          "internalType": "uint256",
          "name": "tokenId",
          "type": "uint256"
        }
      ],
      "name": "pickRandomThirdWord",
      "outputs": [
        {
          "internalType": "string",
          "name": "",
          "type": "string"
        }
      ],
      "stateMutability": "view",
      "type": "function"
    },
    {
      "inputs": [
        {
          "internalType": "address",
          "name": "from",
          "type": "address"
        },
        {
          "internalType": "address",
          "name": "to",
          "type": "address"
        },
        {
          "internalType": "uint256",
          "name": "tokenId",
          "type": "uint256"
        }
      ],
      "name": "safeTransferFrom",
      "outputs": [],
      "stateMutability": "nonpayable",
      "type": "function"
    },
    {
      "inputs": [
        {
          "internalType": "address",
          "name": "from",
          "type": "address"
        },
        {
          "internalType": "address",
          "name": "to",
          "type": "address"
        },
        {
          "internalType": "uint256",
          "name": "tokenId",
          "type": "uint256"
        },
        {
          "internalType": "bytes",
          "name": "_data",
          "type": "bytes"
        }
      ],
      "name": "safeTransferFrom",
      "outputs": [],
      "stateMutability": "nonpayable",
      "type": "function"
    },
    {
      "inputs": [
        {
          "internalType": "address",
          "name": "operator",
          "type": "address"
        },
        {
          "internalType": "bool",
          "name": "approved",
          "type": "bool"
        }
      ],
      "name": "setApprovalForAll",
      "outputs": [],
      "stateMutability": "nonpayable",
      "type": "function"
    },
    {
      "inputs": [
        {
          "internalType": "bytes4",
          "name": "interfaceId",
          "type": "bytes4"
        }
      ],
      "name": "supportsInterface",
      "outputs": [
        {
          "internalType": "bool",
          "name": "",
          "type": "bool"
        }
      ],
      "stateMutability": "view",
      "type": "function"
    },
    {
      "inputs": [],
      "name": "symbol",
      "outputs": [
        {
          "internalType": "string",
          "name": "",
          "type": "string"
        }
      ],
      "stateMutability": "view",
      "type": "function"
    },
    {
      "inputs": [
        {
          "internalType": "uint256",
          "name": "tokenId",
          "type": "uint256"
        }
      ],
      "name": "tokenURI",
      "outputs": [
        {
          "internalType": "string",
          "name": "",
          "type": "string"
        }
      ],
      "stateMutability": "view",
      "type": "function"
    },
    {
      "inputs": [
        {
          "internalType": "address",
          "name": "from",
          "type": "address"
        },
        {
          "internalType": "address",
          "name": "to",
          "type": "address"
        },
        {
          "internalType": "uint256",
          "name": "tokenId",
          "type": "uint256"
        }
      ],
      "name": "transferFrom",
      "outputs": [],
      "stateMutability": "nonpayable",
      "type": "function"
    }
  ],
  "bytecode": "0x608060405260405180610100016040528060d381526020016200465160d3913960089080519060200190620000369291906200082c565b50604051806080016040528060568152602001620047246056913960099080519060200190620000689291906200082c565b506040518060c001604052806040518060400160405280600581526020017f4d4553534900000000000000000000000000000000000000000000000000000081525081526020016040518060400160405280600781526020017f524f4e414c444f0000000000000000000000000000000000000000000000000081525081526020016040518060400160405280600681526020017f4e45594d4152000000000000000000000000000000000000000000000000000081525081526020016040518060400160405280600781526020017f4841414c414e440000000000000000000000000000000000000000000000000081525081526020016040518060400160405280600681526020017f4d4241505045000000000000000000000000000000000000000000000000000081525081526020016040518060400160405280600581526020017f53414c4148000000000000000000000000000000000000000000000000000000815250815250600a906006620001e6929190620008bd565b506040518060c001604052806040518060400160405280600881526020017f56414e5f44494a4b00000000000000000000000000000000000000000000000081525081526020016040518060400160405280600481526020017f444941530000000000000000000000000000000000000000000000000000000081525081526020016040518060400160405280600781526020017f525544494745520000000000000000000000000000000000000000000000000081525081526020016040518060400160405280600681526020017f564152414e45000000000000000000000000000000000000000000000000000081525081526020016040518060400160405280600781526020017f424f4e554343490000000000000000000000000000000000000000000000000081525081526020016040518060400160405280600681526020017f4b4f554e44450000000000000000000000000000000000000000000000000000815250815250600b90600662000364929190620008bd565b506040518060c001604052806040518060400160405280600581526020017f4b414e544500000000000000000000000000000000000000000000000000000081525081526020016040518060400160405280600981526020017f4645524e414e444553000000000000000000000000000000000000000000000081525081526020016040518060400160405280600881526020017f4445425255594e4500000000000000000000000000000000000000000000000081525081526020016040518060400160405280600581526020017f504f47424100000000000000000000000000000000000000000000000000000081525081526020016040518060400160405280600881526020017f4a4f5247494e484f00000000000000000000000000000000000000000000000081525081526020016040518060400160405280600581526020017f4b524f4f53000000000000000000000000000000000000000000000000000000815250815250600c906006620004e2929190620008bd565b506040518060c001604052806040518060400160405280600381526020017f726564000000000000000000000000000000000000000000000000000000000081525081526020016040518060400160405280600781526020017f233038433241380000000000000000000000000000000000000000000000000081525081526020016040518060400160405280600581526020017f626c61636b00000000000000000000000000000000000000000000000000000081525081526020016040518060400160405280600681526020017f79656c6c6f77000000000000000000000000000000000000000000000000000081525081526020016040518060400160405280600481526020017f626c75650000000000000000000000000000000000000000000000000000000081525081526020016040518060400160405280600581526020017f677265656e000000000000000000000000000000000000000000000000000000815250815250600d90600662000660929190620008bd565b503480156200066e57600080fd5b506040518060400160405280600981526020017f5371756172654e465400000000000000000000000000000000000000000000008152506040518060400160405280600681526020017f53515541524500000000000000000000000000000000000000000000000000008152508160009080519060200190620006f39291906200082c565b5080600190805190602001906200070c9291906200082c565b5050506200075a6040518060400160405280601e81526020017f54686973206973206d79204e465420636f6e74726163742e20576f61682100008152506200076060201b620014221760201c565b62000ade565b6200080081604051602401620007779190620009f2565b6040516020818303038152906040527f41304fac000000000000000000000000000000000000000000000000000000007bffffffffffffffffffffffffffffffffffffffffffffffffffffffff19166020820180517bffffffffffffffffffffffffffffffffffffffffffffffffffffffff83818316178352505050506200080360201b60201c565b50565b60008151905060006a636f6e736f6c652e6c6f679050602083016000808483855afa5050505050565b8280546200083a9062000a68565b90600052602060002090601f0160209004810192826200085e5760008555620008aa565b82601f106200087957805160ff1916838001178555620008aa565b82800160010185558215620008aa579182015b82811115620008a95782518255916020019190600101906200088c565b5b509050620008b9919062000924565b5090565b82805482825590600052602060002090810192821562000911579160200282015b8281111562000910578251829080519060200190620008ff9291906200082c565b5091602001919060010190620008de565b5b50905062000920919062000943565b5090565b5b808211156200093f57600081600090555060010162000925565b5090565b5b808211156200096757600081816200095d91906200096b565b5060010162000944565b5090565b508054620009799062000a68565b6000825580601f106200098d5750620009ae565b601f016020900490600052602060002090810190620009ad919062000924565b5b50565b6000620009be8262000a16565b620009ca818562000a21565b9350620009dc81856020860162000a32565b620009e78162000acd565b840191505092915050565b6000602082019050818103600083015262000a0e8184620009b1565b905092915050565b600081519050919050565b600082825260208201905092915050565b60005b8381101562000a5257808201518184015260208101905062000a35565b8381111562000a62576000848401525b50505050565b6000600282049050600182168062000a8157607f821691505b6020821081141562000a985762000a9762000a9e565b5b50919050565b7f4e487b7100000000000000000000000000000000000000000000000000000000600052602260045260246000fd5b6000601f19601f8301169050919050565b613b638062000aee6000396000f3fe608060405234801561001057600080fd5b50600436106101215760003560e01c806370a08231116100ad578063b88d4fde11610071578063b88d4fde14610340578063c575757a1461035c578063c87b56dd1461038c578063de9d132f146103bc578063e985e9c5146103c657610121565b806370a08231146102885780638d75fe05146102b857806395d89b41146102d6578063a22cb465146102f4578063b187301f1461031057610121565b806323b872dd116100f457806323b872dd146101c05780632de38d68146101dc57806342842e0e1461020c578063514dc8c6146102285780636352211e1461025857610121565b806301ffc9a71461012657806306fdde0314610156578063081812fc14610174578063095ea7b3146101a4575b600080fd5b610140600480360381019061013b91906126b5565b6103f6565b60405161014d91906133b9565b60405180910390f35b61015e6104d8565b60405161016b91906133d4565b60405180910390f35b61018e60048036038101906101899190612707565b61056a565b60405161019b9190613329565b60405180910390f35b6101be60048036038101906101b99190612679565b6105ef565b005b6101da60048036038101906101d59190612573565b610707565b005b6101f660048036038101906101f19190612707565b610767565b60405161020391906133d4565b60405180910390f35b61022660048036038101906102219190612573565b610885565b005b610242600480360381019061023d9190612707565b6108a5565b60405161024f91906133d4565b60405180910390f35b610272600480360381019061026d9190612707565b6109c3565b60405161027f9190613329565b60405180910390f35b6102a2600480360381019061029d919061250e565b610a75565b6040516102af9190613654565b60405180910390f35b6102c0610b2d565b6040516102cd9190613654565b60405180910390f35b6102de610b33565b6040516102eb91906133d4565b60405180910390f35b61030e6004803603810190610309919061263d565b610bc5565b005b61032a60048036038101906103259190612707565b610d46565b60405161033791906133d4565b60405180910390f35b61035a600480360381019061035591906125c2565b610e64565b005b61037660048036038101906103719190612707565b610ec6565b60405161038391906133d4565b60405180910390f35b6103a660048036038101906103a19190612707565b610fe4565b6040516103b391906133d4565b60405180910390f35b6103c4611136565b005b6103e060048036038101906103db9190612537565b61138e565b6040516103ed91906133b9565b60405180910390f35b60007f80ac58cd000000000000000000000000000000000000000000000000000000007bffffffffffffffffffffffffffffffffffffffffffffffffffffffff1916827bffffffffffffffffffffffffffffffffffffffffffffffffffffffff191614806104c157507f5b5e139f000000000000000000000000000000000000000000000000000000007bffffffffffffffffffffffffffffffffffffffffffffffffffffffff1916827bffffffffffffffffffffffffffffffffffffffffffffffffffffffff1916145b806104d157506104d0826114bb565b5b9050919050565b6060600080546104e7906138f3565b80601f0160208091040260200160405190810160405280929190818152602001828054610513906138f3565b80156105605780601f1061053557610100808354040283529160200191610560565b820191906000526020600020905b81548152906001019060200180831161054357829003601f168201915b5050505050905090565b600061057582611525565b6105b4576040517f08c379a00000000000000000000000000000000000000000000000000000000081526004016105ab90613594565b60405180910390fd5b6004600083815260200190815260200160002060009054906101000a900473ffffffffffffffffffffffffffffffffffffffff169050919050565b60006105fa826109c3565b90508073ffffffffffffffffffffffffffffffffffffffff168373ffffffffffffffffffffffffffffffffffffffff16141561066b576040517f08c379a0000000000000000000000000000000000000000000000000000000008152600401610662906135f4565b60405180910390fd5b8073ffffffffffffffffffffffffffffffffffffffff1661068a611591565b73ffffffffffffffffffffffffffffffffffffffff1614806106b957506106b8816106b3611591565b61138e565b5b6106f8576040517f08c379a00000000000000000000000000000000000000000000000000000000081526004016106ef906134d4565b60405180910390fd5b6107028383611599565b505050565b610718610712611591565b82611652565b610757576040517f08c379a000000000000000000000000000000000000000000000000000000000815260040161074e90613614565b60405180910390fd5b610762838383611730565b505050565b6060600061079b6107778461198c565b60405160200161078791906132c3565b604051602081830303815290604052611b39565b9050600a80549050816107ae919061396e565b9050600a81815481106107ea577f4e487b7100000000000000000000000000000000000000000000000000000000600052603260045260246000fd5b9060005260206000200180546107ff906138f3565b80601f016020809104026020016040519081016040528092919081815260200182805461082b906138f3565b80156108785780601f1061084d57610100808354040283529160200191610878565b820191906000526020600020905b81548152906001019060200180831161085b57829003601f168201915b5050505050915050919050565b6108a083838360405180602001604052806000815250610e64565b505050565b606060006108d96108b58461198c565b6040516020016108c59190613307565b604051602081830303815290604052611b39565b9050600d80549050816108ec919061396e565b9050600d8181548110610928577f4e487b7100000000000000000000000000000000000000000000000000000000600052603260045260246000fd5b90600052602060002001805461093d906138f3565b80601f0160208091040260200160405190810160405280929190818152602001828054610969906138f3565b80156109b65780601f1061098b576101008083540402835291602001916109b6565b820191906000526020600020905b81548152906001019060200180831161099957829003601f168201915b5050505050915050919050565b6000806002600084815260200190815260200160002060009054906101000a900473ffffffffffffffffffffffffffffffffffffffff169050600073ffffffffffffffffffffffffffffffffffffffff168173ffffffffffffffffffffffffffffffffffffffff161415610a6c576040517f08c379a0000000000000000000000000000000000000000000000000000000008152600401610a6390613514565b60405180910390fd5b80915050919050565b60008073ffffffffffffffffffffffffffffffffffffffff168273ffffffffffffffffffffffffffffffffffffffff161415610ae6576040517f08c379a0000000000000000000000000000000000000000000000000000000008152600401610add906134f4565b60405180910390fd5b600360008373ffffffffffffffffffffffffffffffffffffffff1673ffffffffffffffffffffffffffffffffffffffff168152602001908152602001600020549050919050565b600e5481565b606060018054610b42906138f3565b80601f0160208091040260200160405190810160405280929190818152602001828054610b6e906138f3565b8015610bbb5780601f10610b9057610100808354040283529160200191610bbb565b820191906000526020600020905b815481529060010190602001808311610b9e57829003601f168201915b5050505050905090565b610bcd611591565b73ffffffffffffffffffffffffffffffffffffffff168273ffffffffffffffffffffffffffffffffffffffff161415610c3b576040517f08c379a0000000000000000000000000000000000000000000000000000000008152600401610c3290613494565b60405180910390fd5b8060056000610c48611591565b73ffffffffffffffffffffffffffffffffffffffff1673ffffffffffffffffffffffffffffffffffffffff16815260200190815260200160002060008473ffffffffffffffffffffffffffffffffffffffff1673ffffffffffffffffffffffffffffffffffffffff16815260200190815260200160002060006101000a81548160ff0219169083151502179055508173ffffffffffffffffffffffffffffffffffffffff16610cf5611591565b73ffffffffffffffffffffffffffffffffffffffff167f17307eab39ab6107e8899845ad3d59bd9653f200f220920489ca2b5937696c3183604051610d3a91906133b9565b60405180910390a35050565b60606000610d7a610d568461198c565b604051602001610d66919061325c565b604051602081830303815290604052611b39565b9050600b8054905081610d8d919061396e565b9050600b8181548110610dc9577f4e487b7100000000000000000000000000000000000000000000000000000000600052603260045260246000fd5b906000526020600020018054610dde906138f3565b80601f0160208091040260200160405190810160405280929190818152602001828054610e0a906138f3565b8015610e575780601f10610e2c57610100808354040283529160200191610e57565b820191906000526020600020905b815481529060010190602001808311610e3a57829003601f168201915b5050505050915050919050565b610e75610e6f611591565b83611652565b610eb4576040517f08c379a0000000000000000000000000000000000000000000000000000000008152600401610eab90613614565b60405180910390fd5b610ec084848484611b6c565b50505050565b60606000610efa610ed68461198c565b604051602001610ee6919061323a565b604051602081830303815290604052611b39565b9050600c8054905081610f0d919061396e565b9050600c8181548110610f49577f4e487b7100000000000000000000000000000000000000000000000000000000600052603260045260246000fd5b906000526020600020018054610f5e906138f3565b80601f0160208091040260200160405190810160405280929190818152602001828054610f8a906138f3565b8015610fd75780601f10610fac57610100808354040283529160200191610fd7565b820191906000526020600020905b815481529060010190602001808311610fba57829003601f168201915b5050505050915050919050565b6060610fef82611525565b61102e576040517f08c379a000000000000000000000000000000000000000000000000000000000815260040161102590613574565b60405180910390fd5b600060066000848152602001908152602001600020805461104e906138f3565b80601f016020809104026020016040519081016040528092919081815260200182805461107a906138f3565b80156110c75780601f1061109c576101008083540402835291602001916110c7565b820191906000526020600020905b8154815290600101906020018083116110aa57829003601f168201915b5050505050905060006110d8611bc8565b90506000815114156110ee578192505050611131565b60008251111561112357808260405160200161110b92919061319c565b60405160208183030381529060405292505050611131565b61112c84611bdf565b925050505b919050565b6032600e54111561117c576040517f08c379a000000000000000000000000000000000000000000000000000000000815260040161117390613634565b60405180910390fd5b60006111886007611c86565b9050600061119582610767565b905060006111a283610d46565b905060006111af84610ec6565b905060008383836040516020016111c8939291906131c0565b604051602081830303815290604052905060006111e4866108a5565b9050600060088260098560405160200161120194939291906131f1565b604051602081830303815290604052905060006112468461122184611c94565b60405160200161123292919061327e565b604051602081830303815290604052611c94565b905060008160405160200161125b91906132e5565b60405160208183030381529060405290506112aa6040518060400160405280601581526020017f0a2d2d2d2d2d2d2d2d2d2d2d2d2d2d2d2d2d2d2d2d0000000000000000000000815250611422565b6112b381611422565b6112f16040518060400160405280601581526020017f2d2d2d2d2d2d2d2d2d2d2d2d2d2d2d2d2d2d2d2d0a0000000000000000000000815250611422565b6112fb338a611e52565b6113058982611e70565b61130f6007611ee4565b600e600081548092919061132290613925565b919050555061134a604051806060016040528060258152602001613ac9602591398a33611efa565b7febb98688741ffa4c7589bf325de30cf7becb63de567842e1ccdb6cb949fdc82c338a60405161137b929190613390565b60405180910390a1505050505050505050565b6000600560008473ffffffffffffffffffffffffffffffffffffffff1673ffffffffffffffffffffffffffffffffffffffff16815260200190815260200160002060008373ffffffffffffffffffffffffffffffffffffffff1673ffffffffffffffffffffffffffffffffffffffff16815260200190815260200160002060009054906101000a900460ff16905092915050565b6114b88160405160240161143691906133d4565b6040516020818303038152906040527f41304fac000000000000000000000000000000000000000000000000000000007bffffffffffffffffffffffffffffffffffffffffffffffffffffffff19166020820180517bffffffffffffffffffffffffffffffffffffffffffffffffffffffff8381831617835250505050611f99565b50565b60007f01ffc9a7000000000000000000000000000000000000000000000000000000007bffffffffffffffffffffffffffffffffffffffffffffffffffffffff1916827bffffffffffffffffffffffffffffffffffffffffffffffffffffffff1916149050919050565b60008073ffffffffffffffffffffffffffffffffffffffff166002600084815260200190815260200160002060009054906101000a900473ffffffffffffffffffffffffffffffffffffffff1673ffffffffffffffffffffffffffffffffffffffff1614159050919050565b600033905090565b816004600083815260200190815260200160002060006101000a81548173ffffffffffffffffffffffffffffffffffffffff021916908373ffffffffffffffffffffffffffffffffffffffff160217905550808273ffffffffffffffffffffffffffffffffffffffff1661160c836109c3565b73ffffffffffffffffffffffffffffffffffffffff167f8c5be1e5ebec7d5bd14f71427d1e84f3dd0314c0f7b2291e5b200ac8c7c3b92560405160405180910390a45050565b600061165d82611525565b61169c576040517f08c379a0000000000000000000000000000000000000000000000000000000008152600401611693906134b4565b60405180910390fd5b60006116a7836109c3565b90508073ffffffffffffffffffffffffffffffffffffffff168473ffffffffffffffffffffffffffffffffffffffff16148061171657508373ffffffffffffffffffffffffffffffffffffffff166116fe8461056a565b73ffffffffffffffffffffffffffffffffffffffff16145b806117275750611726818561138e565b5b91505092915050565b8273ffffffffffffffffffffffffffffffffffffffff16611750826109c3565b73ffffffffffffffffffffffffffffffffffffffff16146117a6576040517f08c379a000000000000000000000000000000000000000000000000000000000815260040161179d906135b4565b60405180910390fd5b600073ffffffffffffffffffffffffffffffffffffffff168273ffffffffffffffffffffffffffffffffffffffff161415611816576040517f08c379a000000000000000000000000000000000000000000000000000000000815260040161180d90613474565b60405180910390fd5b611821838383611fc2565b61182c600082611599565b6001600360008573ffffffffffffffffffffffffffffffffffffffff1673ffffffffffffffffffffffffffffffffffffffff168152602001908152602001600020600082825461187c9190613809565b925050819055506001600360008473ffffffffffffffffffffffffffffffffffffffff1673ffffffffffffffffffffffffffffffffffffffff16815260200190815260200160002060008282546118d39190613728565b92505081905550816002600083815260200190815260200160002060006101000a81548173ffffffffffffffffffffffffffffffffffffffff021916908373ffffffffffffffffffffffffffffffffffffffff160217905550808273ffffffffffffffffffffffffffffffffffffffff168473ffffffffffffffffffffffffffffffffffffffff167fddf252ad1be2c89b69c2b068fc378daa952ba7f163c4a11628f55a4df523b3ef60405160405180910390a4505050565b606060008214156119d4576040518060400160405280600181526020017f30000000000000000000000000000000000000000000000000000000000000008152509050611b34565b600082905060005b60008214611a065780806119ef90613925565b915050600a826119ff919061377e565b91506119dc565b60008167ffffffffffffffff811115611a48577f4e487b7100000000000000000000000000000000000000000000000000000000600052604160045260246000fd5b6040519080825280601f01601f191660200182016040528015611a7a5781602001600182028036833780820191505090505b5090505b60008514611b2d57600182611a939190613809565b9150600a85611aa2919061396e565b6030611aae9190613728565b60f81b818381518110611aea577f4e487b7100000000000000000000000000000000000000000000000000000000600052603260045260246000fd5b60200101907effffffffffffffffffffffffffffffffffffffffffffffffffffffffffffff1916908160001a905350600a85611b26919061377e565b9450611a7e565b8093505050505b919050565b600081604051602001611b4c9190613185565b6040516020818303038152906040528051906020012060001c9050919050565b611b77848484611730565b611b8384848484611fc7565b611bc2576040517f08c379a0000000000000000000000000000000000000000000000000000000008152600401611bb990613434565b60405180910390fd5b50505050565b606060405180602001604052806000815250905090565b6060611bea82611525565b611c29576040517f08c379a0000000000000000000000000000000000000000000000000000000008152600401611c20906135d4565b60405180910390fd5b6000611c33611bc8565b90506000815111611c535760405180602001604052806000815250611c7e565b80611c5d8461198c565b604051602001611c6e92919061319c565b6040516020818303038152906040525b915050919050565b600081600001549050919050565b60606000825190506000811415611cbd5760405180602001604052806000815250915050611e4d565b60006003600283611cce9190613728565b611cd8919061377e565b6004611ce491906137af565b90506000602082611cf59190613728565b67ffffffffffffffff811115611d34577f4e487b7100000000000000000000000000000000000000000000000000000000600052604160045260246000fd5b6040519080825280601f01601f191660200182016040528015611d665781602001600182028036833780820191505090505b5090506000604051806060016040528060408152602001613aee604091399050600181016020830160005b86811015611e0a5760038101905062ffffff818a015116603f8160121c168401518060081b905060ff603f83600c1c1686015116810190508060081b905060ff603f8360061c1686015116810190508060081b905060ff603f831686015116810190508060e01b90508084526004840193505050611d91565b506003860660018114611e245760028114611e3457611e3f565b613d3d60f01b6002830352611e3f565b603d60f81b60018303525b508484525050819450505050505b919050565b611e6c82826040518060200160405280600081525061215e565b5050565b611e7982611525565b611eb8576040517f08c379a0000000000000000000000000000000000000000000000000000000008152600401611eaf90613534565b60405180910390fd5b80600660008481526020019081526020016000209080519060200190611edf92919061239a565b505050565b6001816000016000828254019250508190555050565b611f94838383604051602401611f12939291906133f6565b6040516020818303038152906040527fe3849f79000000000000000000000000000000000000000000000000000000007bffffffffffffffffffffffffffffffffffffffffffffffffffffffff19166020820180517bffffffffffffffffffffffffffffffffffffffffffffffffffffffff8381831617835250505050611f99565b505050565b60008151905060006a636f6e736f6c652e6c6f679050602083016000808483855afa5050505050565b505050565b6000611fe88473ffffffffffffffffffffffffffffffffffffffff166121b9565b15612151578373ffffffffffffffffffffffffffffffffffffffff1663150b7a02612011611591565b8786866040518563ffffffff1660e01b81526004016120339493929190613344565b602060405180830381600087803b15801561204d57600080fd5b505af192505050801561207e57506040513d601f19601f8201168201806040525081019061207b91906126de565b60015b612101573d80600081146120ae576040519150601f19603f3d011682016040523d82523d6000602084013e6120b3565b606091505b506000815114156120f9576040517f08c379a00000000000000000000000000000000000000000000000000000000081526004016120f090613434565b60405180910390fd5b805181602001fd5b63150b7a0260e01b7bffffffffffffffffffffffffffffffffffffffffffffffffffffffff1916817bffffffffffffffffffffffffffffffffffffffffffffffffffffffff191614915050612156565b600190505b949350505050565b61216883836121cc565b6121756000848484611fc7565b6121b4576040517f08c379a00000000000000000000000000000000000000000000000000000000081526004016121ab90613434565b60405180910390fd5b505050565b600080823b905060008111915050919050565b600073ffffffffffffffffffffffffffffffffffffffff168273ffffffffffffffffffffffffffffffffffffffff16141561223c576040517f08c379a000000000000000000000000000000000000000000000000000000000815260040161223390613554565b60405180910390fd5b61224581611525565b15612285576040517f08c379a000000000000000000000000000000000000000000000000000000000815260040161227c90613454565b60405180910390fd5b61229160008383611fc2565b6001600360008473ffffffffffffffffffffffffffffffffffffffff1673ffffffffffffffffffffffffffffffffffffffff16815260200190815260200160002060008282546122e19190613728565b92505081905550816002600083815260200190815260200160002060006101000a81548173ffffffffffffffffffffffffffffffffffffffff021916908373ffffffffffffffffffffffffffffffffffffffff160217905550808273ffffffffffffffffffffffffffffffffffffffff16600073ffffffffffffffffffffffffffffffffffffffff167fddf252ad1be2c89b69c2b068fc378daa952ba7f163c4a11628f55a4df523b3ef60405160405180910390a45050565b8280546123a6906138f3565b90600052602060002090601f0160209004810192826123c8576000855561240f565b82601f106123e157805160ff191683800117855561240f565b8280016001018555821561240f579182015b8281111561240e5782518255916020019190600101906123f3565b5b50905061241c9190612420565b5090565b5b80821115612439576000816000905550600101612421565b5090565b600061245061244b846136a0565b61366f565b90508281526020810184848401111561246857600080fd5b6124738482856138b1565b509392505050565b60008135905061248a81613a6c565b92915050565b60008135905061249f81613a83565b92915050565b6000813590506124b481613a9a565b92915050565b6000815190506124c981613a9a565b92915050565b600082601f8301126124e057600080fd5b81356124f084826020860161243d565b91505092915050565b60008135905061250881613ab1565b92915050565b60006020828403121561252057600080fd5b600061252e8482850161247b565b91505092915050565b6000806040838503121561254a57600080fd5b60006125588582860161247b565b92505060206125698582860161247b565b9150509250929050565b60008060006060848603121561258857600080fd5b60006125968682870161247b565b93505060206125a78682870161247b565b92505060406125b8868287016124f9565b9150509250925092565b600080600080608085870312156125d857600080fd5b60006125e68782880161247b565b94505060206125f78782880161247b565b9350506040612608878288016124f9565b925050606085013567ffffffffffffffff81111561262557600080fd5b612631878288016124cf565b91505092959194509250565b6000806040838503121561265057600080fd5b600061265e8582860161247b565b925050602061266f85828601612490565b9150509250929050565b6000806040838503121561268c57600080fd5b600061269a8582860161247b565b92505060206126ab858286016124f9565b9150509250929050565b6000602082840312156126c757600080fd5b60006126d5848285016124a5565b91505092915050565b6000602082840312156126f057600080fd5b60006126fe848285016124ba565b91505092915050565b60006020828403121561271957600080fd5b6000612727848285016124f9565b91505092915050565b6127398161383d565b82525050565b6127488161384f565b82525050565b6000612759826136e5565b61276381856136fb565b93506127738185602086016138c0565b61277c81613a5b565b840191505092915050565b6000612792826136f0565b61279c818561370c565b93506127ac8185602086016138c0565b6127b581613a5b565b840191505092915050565b60006127cb826136f0565b6127d5818561371d565b93506127e58185602086016138c0565b80840191505092915050565b600081546127fe816138f3565b612808818661371d565b94506001821660008114612823576001811461283457612867565b60ff19831686528186019350612867565b61283d856136d0565b60005b8381101561285f57815481890152600182019150602081019050612840565b838801955050505b50505092915050565b600061287d60328361370c565b91507f4552433732313a207472616e7366657220746f206e6f6e20455243373231526560008301527f63656976657220696d706c656d656e74657200000000000000000000000000006020830152604082019050919050565b60006128e3601c8361370c565b91507f4552433732313a20746f6b656e20616c7265616479206d696e746564000000006000830152602082019050919050565b6000612923600a8361371d565b91507f54484952445f574f5244000000000000000000000000000000000000000000006000830152600a82019050919050565b600061296360248361370c565b91507f4552433732313a207472616e7366657220746f20746865207a65726f2061646460008301527f72657373000000000000000000000000000000000000000000000000000000006020830152604082019050919050565b60006129c960198361370c565b91507f4552433732313a20617070726f766520746f2063616c6c6572000000000000006000830152602082019050919050565b6000612a09600b8361371d565b91507f5345434f4e445f574f52440000000000000000000000000000000000000000006000830152600b82019050919050565b6000612a49602c8361370c565b91507f4552433732313a206f70657261746f7220717565727920666f72206e6f6e657860008301527f697374656e7420746f6b656e00000000000000000000000000000000000000006020830152604082019050919050565b6000612aaf606a8361371d565b91507f222c20226465736372697074696f6e223a20224120686967686c79206163636c60008301527f61696d656420636f6c6c656374696f6e206f6620666f6f7462616c6c2073746160208301527f72732e222c2022696d616765223a2022646174613a696d6167652f7376672b7860408301527f6d6c3b6261736536342c000000000000000000000000000000000000000000006060830152606a82019050919050565b6000612b61600d8361371d565b91507f3c2f746578743e3c2f7376673e000000000000000000000000000000000000006000830152600d82019050919050565b6000612ba160388361370c565b91507f4552433732313a20617070726f76652063616c6c6572206973206e6f74206f7760008301527f6e6572206e6f7220617070726f76656420666f7220616c6c00000000000000006020830152604082019050919050565b6000612c07602a8361370c565b91507f4552433732313a2062616c616e636520717565727920666f7220746865207a6560008301527f726f2061646472657373000000000000000000000000000000000000000000006020830152604082019050919050565b6000612c6d60298361370c565b91507f4552433732313a206f776e657220717565727920666f72206e6f6e657869737460008301527f656e7420746f6b656e00000000000000000000000000000000000000000000006020830152604082019050919050565b6000612cd3602e8361370c565b91507f45524337323155524953746f726167653a2055524920736574206f66206e6f6e60008301527f6578697374656e7420746f6b656e0000000000000000000000000000000000006020830152604082019050919050565b6000612d3960028361371d565b91507f227d0000000000000000000000000000000000000000000000000000000000006000830152600282019050919050565b6000612d7960208361370c565b91507f4552433732313a206d696e7420746f20746865207a65726f20616464726573736000830152602082019050919050565b6000612db960318361370c565b91507f45524337323155524953746f726167653a2055524920717565727920666f722060008301527f6e6f6e6578697374656e7420746f6b656e0000000000000000000000000000006020830152604082019050919050565b6000612e1f602c8361370c565b91507f4552433732313a20617070726f76656420717565727920666f72206e6f6e657860008301527f697374656e7420746f6b656e00000000000000000000000000000000000000006020830152604082019050919050565b6000612e8560298361370c565b91507f4552433732313a207472616e73666572206f6620746f6b656e2074686174206960008301527f73206e6f74206f776e00000000000000000000000000000000000000000000006020830152604082019050919050565b6000612eeb602f8361370c565b91507f4552433732314d657461646174613a2055524920717565727920666f72206e6f60008301527f6e6578697374656e7420746f6b656e00000000000000000000000000000000006020830152604082019050919050565b6000612f51600a8361371d565b91507f7b226e616d65223a2022000000000000000000000000000000000000000000006000830152600a82019050919050565b6000612f9160218361370c565b91507f4552433732313a20617070726f76616c20746f2063757272656e74206f776e6560008301527f72000000000000000000000000000000000000000000000000000000000000006020830152604082019050919050565b6000612ff7600a8361371d565b91507f46495253545f574f5244000000000000000000000000000000000000000000006000830152600a82019050919050565b6000613037601d8361371d565b91507f646174613a6170706c69636174696f6e2f6a736f6e3b6261736536342c0000006000830152601d82019050919050565b600061307760318361370c565b91507f4552433732313a207472616e736665722063616c6c6572206973206e6f74206f60008301527f776e6572206e6f7220617070726f7665640000000000000000000000000000006020830152604082019050919050565b60006130dd60318361370c565b91507f6f6f70732c6f6e6c7920353020746f6b656e732063616e206265206d696e746560008301527f642062792074686520636f6e74726163740000000000000000000000000000006020830152604082019050919050565b600061314360058361371d565b91507f434f4c4f520000000000000000000000000000000000000000000000000000006000830152600582019050919050565b61317f816138a7565b82525050565b600061319182846127c0565b915081905092915050565b60006131a882856127c0565b91506131b482846127c0565b91508190509392505050565b60006131cc82866127c0565b91506131d882856127c0565b91506131e482846127c0565b9150819050949350505050565b60006131fd82876127f1565b915061320982866127c0565b915061321582856127f1565b915061322182846127c0565b915061322c82612b54565b915081905095945050505050565b600061324582612916565b915061325182846127c0565b915081905092915050565b6000613267826129fc565b915061327382846127c0565b915081905092915050565b600061328982612f44565b915061329582856127c0565b91506132a082612aa2565b91506132ac82846127c0565b91506132b782612d2c565b91508190509392505050565b60006132ce82612fea565b91506132da82846127c0565b915081905092915050565b60006132f08261302a565b91506132fc82846127c0565b915081905092915050565b600061331282613136565b915061331e82846127c0565b915081905092915050565b600060208201905061333e6000830184612730565b92915050565b60006080820190506133596000830187612730565b6133666020830186612730565b6133736040830185613176565b8181036060830152613385818461274e565b905095945050505050565b60006040820190506133a56000830185612730565b6133b26020830184613176565b9392505050565b60006020820190506133ce600083018461273f565b92915050565b600060208201905081810360008301526133ee8184612787565b905092915050565b600060608201905081810360008301526134108186612787565b905061341f6020830185613176565b61342c6040830184612730565b949350505050565b6000602082019050818103600083015261344d81612870565b9050919050565b6000602082019050818103600083015261346d816128d6565b9050919050565b6000602082019050818103600083015261348d81612956565b9050919050565b600060208201905081810360008301526134ad816129bc565b9050919050565b600060208201905081810360008301526134cd81612a3c565b9050919050565b600060208201905081810360008301526134ed81612b94565b9050919050565b6000602082019050818103600083015261350d81612bfa565b9050919050565b6000602082019050818103600083015261352d81612c60565b9050919050565b6000602082019050818103600083015261354d81612cc6565b9050919050565b6000602082019050818103600083015261356d81612d6c565b9050919050565b6000602082019050818103600083015261358d81612dac565b9050919050565b600060208201905081810360008301526135ad81612e12565b9050919050565b600060208201905081810360008301526135cd81612e78565b9050919050565b600060208201905081810360008301526135ed81612ede565b9050919050565b6000602082019050818103600083015261360d81612f84565b9050919050565b6000602082019050818103600083015261362d8161306a565b9050919050565b6000602082019050818103600083015261364d816130d0565b9050919050565b60006020820190506136696000830184613176565b92915050565b6000604051905081810181811067ffffffffffffffff8211171561369657613695613a2c565b5b8060405250919050565b600067ffffffffffffffff8211156136bb576136ba613a2c565b5b601f19601f8301169050602081019050919050565b60008190508160005260206000209050919050565b600081519050919050565b600081519050919050565b600082825260208201905092915050565b600082825260208201905092915050565b600081905092915050565b6000613733826138a7565b915061373e836138a7565b9250827fffffffffffffffffffffffffffffffffffffffffffffffffffffffffffffffff038211156137735761377261399f565b5b828201905092915050565b6000613789826138a7565b9150613794836138a7565b9250826137a4576137a36139ce565b5b828204905092915050565b60006137ba826138a7565b91506137c5836138a7565b9250817fffffffffffffffffffffffffffffffffffffffffffffffffffffffffffffffff04831182151516156137fe576137fd61399f565b5b828202905092915050565b6000613814826138a7565b915061381f836138a7565b9250828210156138325761383161399f565b5b828203905092915050565b600061384882613887565b9050919050565b60008115159050919050565b60007fffffffff0000000000000000000000000000000000000000000000000000000082169050919050565b600073ffffffffffffffffffffffffffffffffffffffff82169050919050565b6000819050919050565b82818337600083830152505050565b60005b838110156138de5780820151818401526020810190506138c3565b838111156138ed576000848401525b50505050565b6000600282049050600182168061390b57607f821691505b6020821081141561391f5761391e6139fd565b5b50919050565b6000613930826138a7565b91507fffffffffffffffffffffffffffffffffffffffffffffffffffffffffffffffff8214156139635761396261399f565b5b600182019050919050565b6000613979826138a7565b9150613984836138a7565b925082613994576139936139ce565b5b828206905092915050565b7f4e487b7100000000000000000000000000000000000000000000000000000000600052601160045260246000fd5b7f4e487b7100000000000000000000000000000000000000000000000000000000600052601260045260246000fd5b7f4e487b7100000000000000000000000000000000000000000000000000000000600052602260045260246000fd5b7f4e487b7100000000000000000000000000000000000000000000000000000000600052604160045260246000fd5b6000601f19601f8301169050919050565b613a758161383d565b8114613a8057600080fd5b50565b613a8c8161384f565b8114613a9757600080fd5b50565b613aa38161385b565b8114613aae57600080fd5b50565b613aba816138a7565b8114613ac557600080fd5b5056fe416e204e465420772f20494420257320686173206265656e206d696e74656420746f2025734142434445464748494a4b4c4d4e4f505152535455565758595a6162636465666768696a6b6c6d6e6f707172737475767778797a303132333435363738392b2fa26469706673582212201f561222469a324578517bf17022ca263b0f030db579e2474f25e987870ad1f264736f6c634300080000333c73766720786d6c6e733d27687474703a2f2f7777772e77332e6f72672f323030302f73766727207072657365727665417370656374526174696f3d27784d696e594d696e206d656574272076696577426f783d273020302033353020333530273e3c7374796c653e2e62617365207b2066696c6c3a2077686974653b20666f6e742d66616d696c793a2073657269663b20666f6e742d73697a653a20323470783b207d3c2f7374796c653e3c726563742077696474683d273130302527206865696768743d2731303025272066696c6c3d27272f3e3c7465787420783d273530252720793d273530252720636c6173733d27626173652720646f6d696e616e742d626173656c696e653d276d6964646c652720746578742d616e63686f723d276d6964646c65273e",
  "linkReferences": {},
  "deployedLinkReferences": {}
}